:040000000C947D00DF
:100004000C9400000C9400000C9400000C9400006C
:100014000C9400000C9400000C9400000C9400005C
:100024000C9400000C9400000C9400000C9400004C
:100034000C9400000C9400000C9400000C945501E6
:100044000C9400000C94AC000C942E010C9415013B
:100054000C9400000C9400000C9400000C940B12FF
:100064000C94000000001000787878782E78787866
:100074002E7830002B78782E78002B78782E780024
:100084007878782E78782B78782E7843207878785A
:100094002E78786B50610078782E787825207878DF
:1000A40078782E7870706D0080C0070001002D4EA6
:1000B400414E00494E46000002000900680001005C
:1000C40000036A00060071046C00050078047200E5
:1000D40005007E047800050084047E0006008A047E
:1000E40084000200F804AC000100F704AE00010033
:1000F4000B05B0000000F894EE27EFBBF1E0F5BF6C
:10010400E5BF8DE0A2E0BB27ED938A95E9F780E097
:1001140098E0A0E0B1E0ED930197E9F7ECEBF0E0B3
:1001240085919591009761F0A591B59105901590F1
:10013400BF01F00105900D920197E1F7FB01F0CFAB
:10014400E0E0EEBBEFEFEDBFE8E0EEBFC0E0D3E0F0
:100154000C9421020A921A928A939A93AA93BA93BC
:10016400EA93FA93EFB7EA931A931091C600F59BBA
:1001740024C0E52DF62DAAE0B0E00E9433165E2ED1
:100184006F2EE12FF0E0F0975E0E6F1EE091EF040A
:10019400E150E093EF04E03011F00C94DF00E62D21
:1001A400F070A2E0B0E00E940417E52DA3E0B0E0F7
:1001B4000E940417352C462CF598133411F00C9436
:1001C400E400F29A133611F00C94E900F298173413
:1001D40011F00C94EE00F39A123511F00C94F30024
:1001E400F398133511F00C94F800F498133711F0C8
:1001F4000C94FD00F49A183711F00C940901F49949
:1002040006C0F59AE3E0E093EF04552466241991BF
:10021400E991EFBFF991E991B991A99199918991E6
:10022400199009901895AA93EA93EFB7EA93E0918D
:10023400C100EF7BE093C100A09170049A1611F401
:100244000C942901E091C100E062E093C100E991BE
:10025400EFBFE991A9911895AA93EA93FA93EFB79E
:10026400EA93E0917004EF5FE0937004E150F0E0F2
:10027400E059FC4FE081E093C600A09170049A1607
:1002840011F00C944F01E091C100EF7DE093C100A7
:10029400E091C100E064E093C100E991EFBFF991FE
:1002A400E991A9911895EA93EFB7EA93A394E7E04B
:1002B400EA1511F00C946001F098AA24E991EFBFBB
:1002C400E9911895E0917A00E064E0937A00E09176
:1002D4007A00E07111F00C947001F9CFE0917A008A
:1002E400E061E0937A00E0917800F091790008955C
:1002F4001A930A93529A5A98A9E1B0E00E94F5130E
:100304005A9A80EA8A95F1F7529885ED8A95F1F721
:100314004A9B04C0E0E009911991089580E491E0BA
:100324000197F1F74A9904C0E0E009911991089501
:100334004A9B07C0F09904C0E0E00991199108951F
:10034400F7CF10E0153010F00C94DB01E12FF0E052
:10035400E051FB4FA0E0A08307E00F3F11F40C94A1
:10036400D9014A9907C0F09904C0E0E009911991B4
:100374000895F7CF85ED8A95F1F74A9B0DC0E12FDB
:10038400F0E0E051FB4FBF011080E02FA1E00E949C
:10039400E015E129DB01EC934A9B07C0F09904C006
:1003A400E0E0099119910895F7CF0150D6CF1F5F6E
:1003B400C9CFE1E0099119910895AA93F894EF93B4
:1003C400FF93CF93DF93AF93BF932F933F934F93B9
:1003D4002881E0E0F3E038E041912B980000000030
:1003E4000000440F2B9A00000000000088F02B98B6
:1003F400000000000000000000003A9579F72A95FB
:1004040051F74F913F912F91FF91EF917894089577
:1004140000000000000000003A95F9F600002B9857
:100424002A95C9F64F913F912F91BF91AF91DF91DA
:10043400CF91FF91EF917894089521960895E0E883
:10044400E0936100E0E0E0936100EFE0E4B9E0E014
:10045400E5B9E0E3E7B9E0E0E8B9E6EFEAB9E0E0FE
:10046400EBB9E4BDE5E0E5BDE0E0E6BDE7BDE8BD30
:10047400E1E0E0936E00E0E0E093C000E8E9E0939F
:10048400C100E6E0E093C200E0E0E093C500E7E6E7
:10049400E093C400E2E0E0937E00E1E4E0937C00BA
:1004A400E7E8E0937A00E0E0E0937B00A4E6B0E0C4
:1004B4000E945811A0E10E941411E0E0EA93A0E028
:1004C4000E949610AAE8B0E00E94FE10E0E0EA93D1
:1004D400A1E00E949610ABE9B0E00E94FE10EFEAA2
:1004E400F8EC6EEA72E4E0936803F09369036093B6
:1004F4006A0370936B03A2E0B0E00E94F8163E2EEC
:100504004424432C3324A3E0B0E00E94F816F0E026
:100514003E0E4F1EA0E0B0E00E94F8168E2E8824F6
:10052400BB24CC24AA24F298F398F49AE0E0E09354
:10053400EF04F5987894A4E1B0E00E94F513E4EF99
:10054400E093A704EEE2E093A804A0EDB7E00E94D4
:10055400F513EAEAE093A704E7E7EA93E7EAF4E0AD
:10056400FA93EA93E1E0EA93E1E9F4E0FA93EA9397
:10057400A6E10E948811B0919104A0E0E091920458
:10058400F0E0EA2BFB2BE093A904F093AA04B091CA
:100594009304A0E0E0919404F0E0EA2BFB2BE093B9
:1005A400AB04F093AC04B0919504A0E0E091960400
:1005B400F0E0EA2BFB2BE093AD04F093AE04B09192
:1005C4009704A0E0E0919804F0E0EA2BFB2BE09381
:1005D400B904F093BA04B0919904A0E0E0919A04AC
:1005E400F0E0EA2BFB2BE093BB04F093BC04B09146
:1005F4009B04A0E0E0919C04F0E0EA2BFB2BE09349
:10060400BD04F093BE04B0919D04A0E0E0919E046B
:10061400F0E0EA2BFB2BE093AF04F093B004B0912D
:100624009F04A0E0E091A004F0E0EA2BFB2BE09310
:10063400B104F093B204B091A104A0E0E091A2044B
:10064400F0E0EA2BFB2BE093B304F093B404B091F5
:10065400A304A0E0E091A404F0E0EA2BFB2BE093D8
:10066400B504F093B604B091A504A0E0E091A6040B
:10067400F0E0EA2BFB2BE093B704F093B804529814
:10068400A4E1B0E00E94F513F09A8394E9E08E1699
:1006940010F00C9451030E946401BE0ECF1EE9E0D9
:1006A400E81511F00C941404EB2DFC2D0E94111686
:1006B400DE2EEF2EF49B6BC03D144E0410F00C9410
:1006C4006803E0E9F1E0DE2EEF2E5FC0E32DF42DA8
:1006D400ED19FE09DE2EEF2EE0916803F091690317
:1006E40060916A0370916B03AD2DBE2D8827992705
:1006F4000E94E8160E946015E0936C03F0936D036A
:1007040060936E0370936F03E0E0F0E060E271E4E5
:100714000E94DC16A0916C03B0916D0380916E036E
:1007240090916F030E94EC0FE0936C03F0936D03C0
:1007340060936E0370936F03A0916C03B0916D038B
:1007440080916E0390916F03E0E0F0E068EC71E457
:100754000E94A51509F010F40C94B503EFE0F7E23C
:10076400DE2EEF2E12C0E0916C03F0916D036091C8
:100774006E0370916F03A0E0B0E088EC93E40E94F4
:1007840012150E944F14DE2EEF2E77240DC0EB2D90
:10079400E7707E2EA72DEAE0EA9FF001DF01E8E092
:1007A400F0E00E9478167E2ED0926203E0926303FA
:1007B400BB24CC24AD2DBE2DE8EEF3E00E946516DB
:1007C4001E2FE05DE0937104A12FB0E0E8EEF3E0AA
:1007D4000E945B16DE1AEF0AAD2DBE2DE4E6F0E0B2
:1007E4000E9465161E2FE05DE0937204E4E6E19F2B
:1007F400F001DE1AEF0AAD2DBE2DEAE0F0E00E9412
:1008040065161E2FE05DE0937304EAE0E19FF001BA
:10081400DE1AEF0AED2DE05DE0937404E72DE05D50
:10082400E0937604EAE0E81511F00C942E04E4EF6A
:10083400E093A704EEE2E093A804E7E7EA93E7EA8B
:10084400F4E0FA93EA93E2E0EA93E0E0F0E0FA936A
:10085400EA93A0E00E948811EBE0E81511F00C94F3
:100864004504E6EFE093A704E7E7EA93E7EAF4E058
:10087400FA93EA93E1E0EA93E1E9F4E0FA93EA9384
:10088400A2E00E948811ECE0E81511F00C94D80461
:10089400E0919104F0E00E942416DF01CB01E8E02E
:1008A4000E94E815DF01CB01E0919204F0E00E9480
:1008B40024160E94C515E093BF04F093C00460930E
:1008C400C1047093C204E091BD04F091BE04A091F0
:1008D400BF04B091C0048091C1049091C204662702
:1008E40077270E94CF15E091BB04F091BC046627E2
:1008F40077270E946016DF01CB01EFE00E94F41518
:10090400E093C304F093C4046093C5047093C604D5
:10091400A091B504B091B6040E942916EBE00E94A0
:10092400E8157F936F93FF93EF93E091B704F091F1
:10093400B804A091C304B091C4048091C5049091FB
:10094400C6040E9424160E94C515AF91BF918F91D1
:100954009F910E94A216E093C704F093C804609389
:10096400C9047093CA04A091C304B091C4048091D3
:10097400C5049091C6040E94C515E093CB04F0937E
:10098400CC046093CD047093CE04E85FFF4F6F4FA7
:100994007F4FDF01CB01E4E00E94F415E093CF0424
:1009A400F093D0046093D1047093D204EDE0E81581
:1009B40011F00C942F05A091D204AA2312F00C94E8
:1009C400F104EDE2E0938404E091CF04F091D004CB
:1009D4000E94D415E0936603F09367030BC0EBE227
:1009E400E0938404E091CF04F091D004E093660393
:1009F400F0936703A0916603B0916703E4E6F0E027
:100A04000E9478161E2FE05DE0938504E4E6E19FE2
:100A1400F001A0916603B0916703AE1BBF0BA093D6
:100A24006603B0936703EAE0F0E00E9478161E2F95
:100A3400E05DE0938604EAE0E19FF001A0916603A3
:100A4400B0916703AE1BBF0BA0936603B09367031B
:100A5400E0916603E05DE0938804EEE0E81511F0B0
:100A64000C944905E4EFE093A704E4E3E093A804BD
:100A7400E7E7EA93E7EAF4E0FA93EA93E2E0EA9339
:100A8400E0E0F0E0FA93EA93A0E00E948811E1E14B
:100A9400E81511F00C9455050E947A01E03011F428
:100AA400F19801C0F19AE2E1E81511F00C943E06C8
:100AB400A091F004BB27E091F104F0E0AE0FBF1F5A
:100AC400E091F204F0E0AE0FBF1FE091F304F0E018
:100AD400AE0FBF1FE091F404F0E00E94F116EA1B90
:100AE400FB0B11F40C947705F198F19BBEC0E091D7
:100AF400F004F0E0E0936003F0936103F09160038D
:100B0400E0E0E0936003F0936103E091F104F0E02E
:100B1400A0916003B0916103EA0FFB1FE0936003AF
:100B2400F0936103E091F204F0E0E0936603F09344
:100B34006703F0916603E0E0E0936603F0936703D4
:100B4400E091F304F0E0A0916603B0916703EA0F2B
:100B5400FB1FE0936603F0936703E0916003F09159
:100B64006103E0936403F0936503A0916003B09183
:100B74006103E4E6F0E00E9465161E2FE05DE09359
:100B84007804E4E6E19FF001A0916003B091610371
:100B9400AE1BBF0BA0936003B0936103EAE0F0E0E7
:100BA4000E9465161E2FE05DE0937904EAE0E19F60
:100BB400F001A0916003B0916103AE1BBF0BA09341
:100BC4006003B0936103E0916003E05DE0937B0414
:100BD400E0916703E07811F40C940006EDE2E093F1
:100BE4007E04E0916703EF77E0936703A6E6B3E042
:100BF400ED91FD913197FE93EE9303C0EBE2E09308
:100C04007E04A0916603B0916703E4E6F0E00E94DD
:100C140078161E2FE05DE0937F04E4E6E19FF00187
:100C2400A0916603B0916703AE1BBF0BA09366034C
:100C3400B0936703EAE0F0E00E9478161E2FE05DAF
:100C4400E0938004EAE0E19FF001A0916603B09193
:100C54006703AE1BBF0BA0936603B0936703E091D9
:100C64006603E05DE093820407C0E8E7E0937F0455
:100C7400E0938004E0938204E5E1E81511F00C941C
:100C84005506E6EFE093A704E7E7EA93E7EAF4E022
:100C9400FA93EA93E1E0EA93E1E9F4E0FA93EA9360
:100CA400A2E00E948811E6E1E81511F00C94AD0869
:100CB400E0919104F0E00E942416DF01CB01E8E00A
:100CC4000E94E815DF01CB01E0919204F0E00E945C
:100CD40024160E94C515E093DF04F093E0046093AA
:100CE400E1047093E204E091CB04F091CC046091B0
:100CF400CD047091CE04E05AFF4060407040E09310
:100D0400D304F093D4046093D5047093D604A091D3
:100D1400D304B091D4048091D5049091D6040E9458
:100D24006016DF01CB01ECE00E94F415A091B10440
:100D3400B091B2040E9429160E946016DF01CB0113
:100D4400EBE00E94F415E093C304F093C4046093B1
:100D5400C5047093C604E091D304F091D404609167
:100D6400D5047091D604A091AB04B091AC040E9458
:100D740029160E946016DF01CB01EBE00E94F415F6
:100D8400E093C704F093C8046093C9047093CA0441
:100D9400A091C304B091C4048091C5049091C60489
:100DA4000E94C515E093D704F093D8046093D90446
:100DB4007093DA04A091A904B091AA040E942916A0
:100DC400E2E00E94E815E093DB04F093DC04609316
:100DD400DD047093DE04E091D704F091D8046091AF
:100DE400D9047091DA04A091DB04B091DC04809101
:100DF400DD049091DE040E94C515E093DB04F093BA
:100E0400DC046093DD047093DE04EE5FFF4F6F4FEC
:100E14007F4FE093DB04F093DC046093DD04709374
:100E2400DE04A091DB04B091DC048091DD04909198
:100E3400DE04E2E00E94F415E093DB04F093DC04AA
:100E44006093DD047093DE04E091D304F091D40444
:100E54006091D5047091D604A091AD04B091AE0414
:100E64000E9429160E946016E093C304F093C40400
:100E74006093C5047093C604A091C304B091C404E4
:100E84008091C5049091C604EDE00E94F415E093AE
:100E9400C304F093C4046093C5047093C604E09142
:100EA400D304F091D4046091D5047091D604A09138
:100EB400D304B091D4048091D5049091D6040E94B7
:100EC4006016DF01CB01ECE00E94F415A091AF04A1
:100ED400B091B0040E9429160E9460160E941D164B
:100EE400E093C704F093C8046093C9047093CA04E0
:100EF400A091C304B091C4048091C5049091C60428
:100F04000E94C515EE5FFF4F6F4F7F4F0E940C1676
:100F14000E940C16E093D704F093D8046093D9048C
:100F24007093DA04E050F0486F4F7F4FA091B904FA
:100F3400B091BA04882799270E943B16DF01CB01A0
:100F4400EFE00E940016E093E704F093E804609356
:100F5400E9047093EA04A091DB04B091DC0480916D
:100F6400DD049091DE04E091DF04F091E0046091EF
:100F7400E1047091E2040E94CA15A0E5B3EC80E09C
:100F840090E00E943B16E093EB04F093EC04609332
:100F9400ED047093EE04A091EB04B091EC04809105
:100FA400ED049091EE04A030E0E0BE07E0E08E078F
:100FB400E0E89E0710F00C94FE07E091EB04F0913A
:100FC400EC046091ED047091EE040E941816DF01A8
:100FD400CB01E091E704F091E8046091E904709199
:100FE400EA040E947D16E093E304F093E404609322
:100FF400E5047093E6041CC0E091E704F091E80472
:101004006091E9047091EA04A091EB04B091EC04BE
:101014008091ED049091EE040E947D160E941816B2
:10102400E093E304F093E4046093E5047093E6042E
:10103400A091E304B091E4048091E5049091E60466
:10104400E8E00E94F4157F936F93FF93EF93E8E039
:101054000E94F415AF91BF918F919F910E946016E9
:10106400E093C304F093C4046093C5047093C6046E
:10107400AEEDBBE080E090E00E9460160E941D1679
:10108400E093C304F093C4046093C5047093C6044E
:10109400E091E304F091E4046091E5047091E604C6
:1010A400A3E4B3EE8FEF9FEF0E9460160E941D161B
:1010B400E093C704F093C8046093C9047093CA040E
:1010C400E091C304F091C4046091C5047091C60416
:1010D400A091C704B091C8048091C9049091CA0436
:1010E4000E94C515E093C704F093C8046093C90433
:1010F4007093CA04E153F14F6F4F7F4FE093C704DD
:10110400F093C8046093C9047093CA04A091C704FF
:10111400B091C8048091C9049091CA04E4E00E948B
:10112400F415E093C704F093C8046093C904709362
:10113400CA04A091E304B091E4048091E504909181
:10114400E6040E94C515E093DF04F093E004609385
:10115400E1047093E204E6E1E81511F00C94250C27
:10116400E0E0E0930003E0E5E0930103E0E0E093D6
:101174000203A091DF04B091E0048091E104909116
:10118400E204A435E9E6BE07E1E08E07E0E09E074D
:1011940014F40C94D708E5E2E0930303E0E5E0934C
:1011A4000403E0E0E093050307C0E0E0E0930303F9
:1011B400E0930403E0930503A091DF04B091E004FD
:1011C4008091E1049091E204A831E3E7BE07E1E0F5
:1011D4008E07E0E09E0714F40C94F908E0E5E09330
:1011E4000603E0930703E0E0E093080307C0E0E0B0
:1011F400E0930603E0930703E0930803A091DF0460
:10120400B091E0048091E1049091E204A03AE6E810
:10121400BE07E1E08E07E0E09E0714F40C941B097E
:10122400E0E5E0930903E0E0E0930A03E0930B03B5
:1012340007C0E0E0E0930903E0930A03E0930B03A3
:10124400A091DF04B091E0048091E1049091E20464
:10125400A436E0E9BE07E1E08E07E0E09E0714F45F
:101264000C943D09E0E5E0930C03E0E0E0930D030A
:10127400E0930E0307C0E0E0E0930C03E0930D035A
:10128400E0930E03A091DF04B091E0048091E104A7
:101294009091E204A832EAE9BE07E1E08E07E0E0BB
:1012A4009E0714F40C945F09E0E5E0930F03E093C8
:1012B4001003E0E0E093110307C0E0E0E0930F03C4
:1012C400E0931003E0931103A091DF04B091E004D4
:1012D4008091E1049091E204AC3EE3EABE07E1E0D0
:1012E4008E07E0E09E0714F40C948209E5E2E09393
:1012F4001203E0E5E0931303E0E0E093140307C076
:10130400E0E0E0931203E0931303E0931403A0914D
:10131400DF04B091E0048091E1049091E204A03BE9
:10132400EDEABE07E1E08E07E0E09E0714F40C94BA
:10133400A509E0E0E0931503E0E5E0931603E0E09F
:10134400E093170307C0E0E0E0931503E09316036E
:10135400E0931703E0E0E0931803E0E5E09319035A
:10136400E0E0E0931A03A091CF04B091D0048091FF
:10137400D1049091D204AC39EFEFBE07EFEF8E07A2
:10138400EFEF9E0714F40C94D109E5E2E0931B03FC
:10139400E0E5E0931C03E0E0E0931D0307C0E0E018
:1013A400E0931B03E0931C03E0931D03A091D2047C
:1013B400AA2312F40C94E709E0E5E0931E03E093FA
:1013C4001F03E0E0E093200307C0E0E0E0931E0386
:1013D400E0931F03E0932003A091CF04B091D004C5
:1013E4008091D1049091D204A436E0E0BE07E0E0FD
:1013F4008E07E0E09E0714F40C94090AE0E5E093FC
:101404002103E0E0E0932203E093230307C0E0E03C
:10141400E0932103E0932203E0932303A091CF04FC
:10142400B091D0048091D1049091D204A83CE0E022
:10143400BE07E0E08E07E0E09E0714F40C942B0A4C
:10144400E0E5E0932403E0E0E0932503E093260342
:1014540007C0E0E0E0932403E0932503E093260330
:10146400A091CF04B091D0048091D1049091D20482
:10147400AC32E1E0BE07E0E08E07E0E09E0714F442
:101484000C944D0AE0E5E0932703E0932803E0E0A1
:10149400E093290307C0E0E0E0932703E0932803E7
:1014A400E0932903A091CF04B091D0048091D1049A
:1014B4009091D204A039E1E0BE07E0E08E07E0E0BD
:1014C4009E0714F40C94700AE5E2E0932A03E0E525
:1014D400E0932B03E0E0E0932C0307C0E0E0E0930B
:1014E4002A03E0932B03E0932C03A091CF04B09143
:1014F400D0048091D1049091D204A43FE1E0BE07CE
:10150400E0E08E07E0E09E0714F40C94930AE0E018
:10151400E0932D03E0E5E0932E03E0E0E0932F0356
:1015240007C0E0E0E0932D03E0932E03E0932F0344
:10153400E0E0E0933003E0E5E0933103E0E0E093A2
:101544003203A0916203B0916303A039E1E0BE07C6
:1015540010F40C94B70AE5E2E0933303E0E5E0937A
:101564003403E0E0E093350307C0E0E0E0933303A5
:10157400E0933403E0933503A0916203B0916303D5
:10158400A835E2E0BE0710F40C94D10AE0E5E0933C
:101594003603E0933703E0E0E093380307C0E0E06C
:1015A400E0933603E0933703E0933803A09162039A
:1015B400B0916303A032E3E0BE0710F40C94EB0A8D
:1015C400E0E5E0933903E0E0E0933A03E0933B0382
:1015D40007C0E0E0E0933903E0933A03E0933B0370
:1015E400A0916203B0916303A83EE3E0BE0710F448
:1015F4000C94050BE0E5E0933C03E0E0E0933D034D
:10160400E0933E0307C0E0E0E0933C03E0933D0336
:10161400E0933E03A0916203B0916303A03BE4E036
:10162400BE0710F40C941F0BE0E5E0933F03E09336
:101634004003E0E0E093410307C0E0E0E0933F03B0
:10164400E0934003E0934103A0916203B0916303EC
:10165400A837E5E0BE0710F40C943A0BE5E2E093FA
:101664004203E0E5E0934303E0E0E093440307C072
:10167400E0E0E0934203E0934303E0934403A0914A
:101684006203B0916303A034E6E0BE0710F40C9447
:10169400550BE0E0E0934503E0E5E0934603E0E02A
:1016A400E093470307C0E0E0E0934503E09346037B
:1016B400E0934703E0E0E0934803E0E5E093490367
:1016C400E0E0E0934A03A0916403B0916503A83776
:1016D400E0E0BE0710F40C94790BE5E2E0934B03D1
:1016E400E0E5E0934C03E0E0E0934D0307C0E0E065
:1016F400E0934B03E0934C03E0934D03A091640308
:10170400B0916503AA3FE0E0BE0710F40C94930B7C
:10171400E0E5E0934E03E0934F03E0E0E0935003F1
:1017240007C0E0E0E0934E03E0934F03E0935003DF
:10173400A0916403B0916503A237E1E0BE0710F401
:101744000C94AD0BE0E5E0935103E0E0E093520329
:10175400E093530307C0E0E0E0935103E0935203A6
:10176400E0935303A0916403B0916503A43FE1E0C7
:10177400BE0710F40C94C70BE0E5E0935403E0E0DB
:10178400E0935503E093560307C0E0E0E09354036D
:10179400E0935503E0935603A0916403B09165036D
:1017A400AC36E2E0BE0710F40C94E10BE0E5E09304
:1017B4005703E0935803E0E0E093590307C0E0E0E7
:1017C400E0935703E0935803E0935903A091620315
:1017D400B0916303A032E3E0BE0710F40C94FC0B59
:1017E400E5E2E0935A03E0E5E0935B03E0E0E09395
:1017F4005C0307C0E0E0E0935A03E0935B03E093EB
:101804005C03A0916203B0916303A436E0E0BE07D9
:1018140011F00C94170CE0E0E0935D03E0E5E09335
:101824005E03E0E0E0935F0307C0E0E0E0935D0364
:10183400E0935E03E0935F03E0910003E093000311
:10184400A0E60E94DF01E8E1E81511F00C94ED0C2C
:10185400A091DF04B091E0048091E1049091E2044E
:10186400E0EAF6E861E070E00E94A2161E2FE05D57
:10187400E0938A04E12FF0E00E942416A0EAB6E87F
:1018840081E090E00E943B16A091DF04B091E00457
:101894008091E1049091E2040E94CF15A093DF04AB
:1018A400B093E0048093E1049093E204A091DF04F8
:1018B400B091E0048091E1049091E204E0E1F7E268
:1018C40060E070E00E94A2161E2FE05DE0938B049E
:1018D400E12FF0E00E942416A0E1B7E280E090E05E
:1018E4000E943B16A091DF04B091E0048091E104D2
:1018F4009091E2040E94CF15A093DF04B093E0041A
:101904008093E1049093E204A091DF04B091E00499
:101914008091E1049091E204E8EEF3E060E070E08D
:101924000E94A2161E2FE05DE0938C04A12FB0E06C
:10193400E8EEF3E00E945B16A091DF04B091E004AE
:101944008091E1049091E2040E9424160E94CF1534
:10195400A093DF04B093E0048093E1049093E20445
:10196400A091DF04B091E0048091E1049091E2043D
:10197400E4E6F0E060E070E00E94A2161E2FE05D55
:10198400E0938E04E4E6E19FF001A091DF04B091BE
:10199400E0048091E1049091E2040E9424160E94E4
:1019A400CF15A093DF04B093E0048093E1049093F7
:1019B400E204A091DF04B091E0048091E1049091ED
:1019C400E204EAE0F0E060E070E00E94A2161E2F5C
:1019D400E05DE0938F04F39BF6C0E9E1E81511F0B4
:1019E4000C94260DE92D9394F0E0E059FC4FAAE203
:1019F400A083E92D9394F0E0E059FC4FA0E5A08387
:101A040010E0E12FF0E0E657FB4FE081E03011F405
:101A14000C941A0DE92D9394F0E0E059FC4FDF018A
:101A2400E12F1F5FF0E0E657FB4FE081EC93E9CF35
:101A3400E92D9394F0E0E059FC4FAAE2A083E091F1
:101A4400C100E062E093C100EBE1E81511F00C94F1
:101A5400770DE92D9394F0E0E059FC4FAAE2A083BE
:101A6400E92D9394F0E0E059FC4FA4E5A08310E045
:101A7400F29B18C0E12FF0E0E258FB4FE081E03028
:101A840011F40C94530DE92D9394F0E0E059FC4FBC
:101A9400DF01E12F1F5FF0E0E258FB4FE081EC93A0
:101AA400E9CF17C0E12FF0E0EC57FB4FE081E030C5
:101AB40011F40C946B0DE92D9394F0E0E059FC4F74
:101AC400DF01E12F1F5FF0E0EC57FB4FE081EC9367
:101AD400E9CFE92D9394F0E0E059FC4FAAE2A0830A
:101AE400E091C100E062E093C100EDE1E81511F07E
:101AF4000C94AE0DE92D9394F0E0E059FC4FAAE26A
:101B0400A083E92D9394F0E0E059FC4FA6E5A0836F
:101B140010E0E12FF0E0E858FB4FE081E03011F4F1
:101B24000C94A20DE92D9394F0E0E059FC4FDF01F1
:101B3400E12F1F5FF0E0E858FB4FE081EC93E9CF21
:101B4400E92D9394F0E0E059FC4FAAE2A083E091E0
:101B5400C100E062E093C100EEE1E81511F00C94DD
:101B6400E50DE92D9394F0E0E059FC4FAAE2A0833F
:101B7400E92D9394F0E0E059FC4FAEE4A08310E02B
:101B8400E12FF0E0EF58FB4FE081E03011F40C94CA
:101B9400D90DE92D9394F0E0E059FC4FDF01E12FDA
:101BA4001F5FF0E0EF58FB4FE081EC93E9CFE92DA4
:101BB4009394F0E0E059FC4FAAE2A083E091C100C5
:101BC400E062E093C100EFE1E81511F00C941F0E00
:101BD400E0E0EA93A0E00E949610F29B05C0AEE715
:101BE400B4E00E94EA1004C0A4E8B4E00E94EA1041
:101BF400E7E0EA93A0E00E949610AAE8B4E00E940D
:101C0400EA10E0E0EA93A1E00E949610A8E7B4E0AD
:101C14000E94EA10E7E0EA93A1E00E949610A1E78F
:101C2400B4E00E94EA108824E0E0E093DF04E0934B
:101C3400E004E093E104E093E204F09B01C0FDCFF3
:101C44000C944603FFCF0E94E1167B816A81F981DF
:101C5400E88177FB770F67FD7160972F9E5781F0BE
:101C640078F0983190F4AA27BB27882708948795A1
:101C7400B795A7959A95D1F7EA23FB23682305C066
:101C8400E8947727EE27FF2766276F77769508F481
:101C9400606877F9A991B99189919991EA17FB073D
:101CA4006807790797FB08950E94E1160E94D216EF
:101CB4000E94250E0E94D71621F40E94CD16249668
:101CC4000895DEF70E94CD16A0E0B0E080E89FE31F
:101CD4000E94BB14249608950E94E11624971A9337
:101CE4000A93AE81BF81888599850E94191714F4DF
:101CF4000C94840EEFEFFFEF6FE77FEF19810881FB
:101D04002A960895EE81FF81688579850E94DC1604
:101D1400ADB7BEB711971F930F930E94FF130F9196
:101D24001F91EE83FF8368877987AE81BF818885A1
:101D34009985E3EFF4E065E37FE30E94A51510F0D5
:101D44000C94B00EEE81FF81688579850E94C214DF
:101D5400EE83FF836887798701501040EE81FF810D
:101D640068857985A0E0B0E080E89FE30E94BB1419
:101D74007F936F93FF93EF93EE81FF81688579855D
:101D8400A0E0B0E080E89FE30E94C214AF91BF914D
:101D94008F919F910E946015EE83FF8368877987F6
:101DA400AE81BF81888599850E941215EA83FB83E1
:101DB4006C837D83A6E2B2E485E69FE30E9412155C
:101DC400DF01CB01EEE4F1E164E570E40E94EB167F
:101DD4000E94BB14AE81BF81888599850E9412152B
:101DE4007F936F93FF93EF93EA81FB816C817D81F5
:101DF400ADE4B1E184ED9FE30E94BB14AF91BF91C8
:101E04008F919F910E9460157F936F93FF93EF933F
:101E1400F8010E9424160E948814A8E1B2E781E325
:101E24009FE30E941215AF91BF918F919F910E94E1
:101E3400C214198108812A9608950E94E1162897F0
:101E44001A930A93AA85BB858C859D85E0E5FCEAF7
:101E54006EEA72EC0E94A51510F00C94390FE0E0C4
:101E6400F0E060E070E0198108812E960895EA851B
:101E7400FB856C857D850E94151711F00C944A0F23
:101E8400E0E0F0E060E87FE3198108812E96089590
:101E9400AA85BB858C859D85E8E1F2E761EB72E458
:101EA4000E94A51509F010F40C94600FEFEFFFEFFA
:101EB4006FE77FE7198108812E960895AA85BB856F
:101EC4008C859D85EBE3FAEA68EB7FE30E941215AB
:101ED400EA87FB876C877D87AA85BB858C859D8572
:101EE4000E94560E0E9451148F01AA85BB858C85D1
:101EF4009D850E9424160E9488140E94EB160E945D
:101F0400BB14DF01CB01E0E0F0E060E07FE30E947E
:101F1400EB160E94BB14EE83FF8368877987AE813A
:101F2400BF81888599850E941215EA83FB836C839F
:101F34007D83ADE6BCE48CE69DE30E941215A6EA1F
:101F4400B3EE86EE90E40E94C214AE81BF81888510
:101F540099850E941215EE83FF8368877987EA8149
:101F6400FB816C817D81A8E2BDE886EA91E40E9450
:101F7400C214EA83FB836C837D83EE81FF816885D1
:101F84007985AA81BB818C819D810E94C214A3EFB3
:101F9400B4E085EB9FE30E9412157F936F93FF9348
:101FA400EF93AE81BF8188859985EA81FB816C813D
:101FB4007D810E94BB14AF91BF918F919F910E942C
:101FC40060150E94DC16D8010E9410141981088142
:101FD4002E9608950E94E1162497E885F9856A856E
:101FE4007B850E94151711F00C94FE0FE0E0F0E0E1
:101FF40060E070E02C960895A885B9858A859B8554
:102004000E94191714F00C942810EC81FD816E8144
:102014007F810E94151711F00C941610E0E0F0E097
:1020240060E87FE32C960895A885B9858A859B8509
:102034000E946E0EAC81BD818E819F810E9412151B
:10204400DF01CB010E941F0F2C960895EC81FD81C6
:102054006E817F81DE010E9451140E94C8160E9485
:10206400CD160E948814DF01CB01EC81FD816E81C5
:102074007F810E941F1711F40C944610E0E0F0E0F9
:1020840060E070E02C960895E885F9856A857B8583
:102094000E941C14DF01CB010E946E0EAC81BD8135
:1020A4008E819F810E941215DF01CB010E941F0FB8
:1020B400E887F9876A877B87E881E17011F00C94DF
:1020C4006910E885F9856A857B852C960895E885ED
:1020D400F9856A857B850E941C142C960895AA9321
:1020E400EBB1EF70AE2FE881E07FEA2BEBB98BE127
:1020F4008A95F1F72A9A8BE18A95F1F72A988BE170
:102104008A95F1F721960895AA93A8810E947110E7
:10211400E881E295E883A8810E94711088EC90E040
:102124000197F1F721960895AA93E881F0E0E85029
:10213400FB4FE081A981AE0F0E948610E981E093F4
:10214400FC04E881E093FD0422960895A2E00E9435
:102154008610A3E0B0E00E94F513ACE00E94861064
:10216400A1E00E948610A3E0B0E00E94F513E0E035
:10217400E093FD04E093FC040895AA93A881AA3097
:1021840011F40C94CE10E091FE04A091FC04AE175F
:1021940010F00C94CE1010C0E0E0EA93A091FD047E
:1021A400AF5FA093FD040E949610A881AA3011F09D
:1021B4000C94DE1021960895E091FC04EF5FE09307
:1021C400FC04289AA8810E948610289821960895D4
:1021D400BA93AA931A93A981BA81ED91A983BA8378
:1021E4001E2FE03011F40C94FB10A12F0E94BF109D
:1021F400F2CF188123960895BA93AA931A93E9818A
:10220400FA813196E983FA833197E4911E2FE03005
:1022140011F40C941111A12F0E94BF10F0CF18815A
:1022240023960895AA93EAB1E06FEAB9229A209A14
:10223400219A2A9828982998E881E093FE04E05886
:10224400E093FA04E881E054E093FB04A4E1B0E0F5
:102254000E94F513A0E30E94711080E991E00197B8
:10226400F1F7A0E30E94711080E991E00197F1F782
:10227400A0E30E94711080E991E00197F1F7A0E2D8
:102284000E94711080E991E00197F1F7A8E20E94A1
:102294008610A4E00E948610A5E80E948610A6E09D
:1022A4000E9486100E94A81021960895BA93AA93BA
:1022B4001A93F79AE7E0E093F704E0E0E093070568
:1022C400E0930805E0930905E0930A05449A459ACA
:1022D400E093BC00E091B900EC7FE093B900E981A0
:1022E400FA81A0E4BFE10E9465161E2F183010F495
:1022F4000C947D1118501093B800E091BC00E07864
:10230400E564E093BC00188123960895AA9324976A
:10231400F79B7CC0EA85EE0FE093FF04E885F9851E
:10232400E0930005F0930105E0E0E093F504EF810C
:10233400E0930205ED81FE81E0930305F09304052B
:10234400E0E0E093F604EC81E0930505E6E0E09339
:10235400F7047894EF81E03011F40C94CC11E88503
:10236400F985309711F00C94BA11E0E02B9608959A
:10237400EC81E03011F40C94C611AD81BE8110974C
:1023840011F00C94C61101C003C0E0E02B9608952F
:10239400F69A14C0EC81E03011F40C940112ED8132
:1023A400FE81309711F00C94DA11E0E02B96089539
:1023B400E091FF04E160E093FF04F698F798E09160
:1023C400BC00EF70E06AE093BC00E0E2F1EA67E091
:1023D40070E00E94D716F79912C00E94CD1631976B
:1023E400604070400E94D71611F00C940012E5E092
:1023F400E093F704F79AE0E02B960895ECCFA091D0
:10240400F704E0E00E942E162B960895E0E02B9648
:1024140008950A921A92FA926A937A938A939A93F3
:10242400AA93BA93EA93FA93EFB7EA930E94241714
:102434001091F6040091F504309102052091F704FF
:10244400E12FA0910305B0910405F0E0EA0FFB1F12
:10245400AF01E091B900E87FE83011F00C94341238
:1024640020E004C0E03111F00C943E12E091FF042E
:10247400E093BB001AC004C0E83111F00C9443127D
:1024840004C0E83211F00C947312031710F00C948A
:102494005E12E02F0F5FA0910005B0910105F0E0FE
:1024A400AE0FBF1FEC91E093BB00E091BC00EF7056
:1024B400E068E093BC0014C0E09105051E1710F01D
:1024C4000C947112E091FF04E160E093FF04F6982C
:1024D400E091BC00EF70E06AE093BC006BC14FC0B8
:1024E40069C1E03511F00C947D12E091BB00DA0172
:1024F400EC931F5F04C0E03411F00C949612E09149
:102504000505E1501E1710F40C948F12E091BC00E5
:10251400EF70E068E093BC0006C0E091BC00EF708F
:10252400E06CE093BC0046C1E83511F00C94A012B5
:10253400E091BB00DA01EC931F5F04C0E03211F0BC
:102544000C94A51204C0E03311F00C94AA1204C038
:10255400E83411F00C94C912203011F00C94C1121B
:10256400F69B06C0031710F00C94B91207C007C0FD
:10257400E09105051E1710F00C94C11224E0E091BF
:10258400BC00EF70E06DE093BC0013C104C0E833FD
:1025940011F00C94D61222E0E091BC00EF70E068D8
:1025A400E093BC0006C104C0E83611F00C94DB12C1
:1025B40004C0E83711F00C94E21222E00BC004C00E
:1025C400E03611F00C94E71204C0E03711F00C94DB
:1025D400031320E010E0F698E0910605E03011F0D6
:1025E4000C94FC1221E0E091BC00EF70E068E093F1
:1025F400BC0006C0E091BC00EF70E06CE093BC004E
:10260400D9C0E03811F00C94081304C0E03911F07B
:102614000C943913F69B02C021E0C5C0E091BB00C5
:10262400DA01EC931F5FE09106051E1710F00C947D
:102634003713E0910705F0910805309711F00C94D9
:10264400251326E0B0C0A0E0E0910705F09108054D
:102654000995E03011F40C943613E091BC00EF704E
:10266400E06CE093BC00A6C001C0F69A04C0E83850
:1026740011F00C943E1304C0E83911F00C94491382
:10268400E091BC00EF70E068E093BC0093C0E03AD6
:1026940011F00C946513E091BC00EF70E06CE093D2
:1026A400BC00F79AE0910705F0910805309711F402
:1026B4000C946313A1E0E0910705F09108050995D6
:1026C40001C026E077C0E03B11F00C946B1322E0CC
:1026D40004C0E83A11F00C948A13E0910905F091D2
:1026E4000A05309711F40C948513A0E0E0910905D4
:1026F400F0910A0509953E2FE03011F00C948313F4
:1027040002C020E002C026E04EC000E0F69804C0FB
:10271400E83B11F00C94B113F69B02C021E043C0D6
:10272400E02F0F5FA0910005B0910105F0E0AE0F1E
:10273400BF1FEC91E093BB00031710F00C94A91396
:10274400E091BC00EF70E06CE093BC0007C0F69A27
:10275400E091BC00EF70E068E093BC002BC0E03C6B
:1027640011F00C94B61304C0E83C11F00C94D0138F
:10277400E091BC00EF70E06CE093BC00E0910905CF
:10278400F0910A05309711F40C94CE13A1E0E09176
:102794000905F0910A0509950CC004C0E03011F058
:1027A4000C94DC1323E0E091BC00EF70E06DE09347
:1027B400BC00F79A1093F6040093F5042093F704F1
:1027C400309302050E942B172696E991EFBFF991E9
:1027D400E991B991A9919991899179916991F99026
:1027E400199009901895109639F080EA9FE00197A6
:1027F400F1F7A8951197C9F70895E991F9916991AD
:10280400799177FB660F771F88277E57880B7D9316
:102814008C937EE7769567956EF00895E991F9912A
:102824006991799177FB660F771F7A0F7695679593
:102834000EF0089530976040704009F07058089584
:10284400552342F4503811F4E0FF04C03196691F57
:10285400791F6BF050E8572711F45F93CFC05F3FA7
:1028640031F0660F000C57956795752F08955F93A7
:1028740000200AF0CFC0C8C050E8192E1522880FD6
:10288400991F9527550F879550E8072E0522660F47
:10289400771F7527550F67950895689401C0E894CC
:1028A4005F93F2DF703818F07F3F08F4A7C056E159
:1028B400571BAAF4519558300EF4593030F0EFEF0D
:1028C400FFEF6FEF7FE777F91AC077275523B9F049
:1028D400EE0FFF1F661F771F5A95D1F710C0772799
:1028E400583028F0EF2FF62F672F5850F9CF552383
:1028F40031F076956795F795E7955A95D1F70020CD
:102904000AF454D15F910895689401C0E894309713
:1029140060407040B1F0002426F0772312F4009454
:1029240045D1172E7EE1112032F07A95EE0FFF1F6C
:10293400661F111CF9CFEF2FF62F612D5F938ADFED
:102944005F9108954F93AF01FD01DA01AB01BC0122
:10295400CA01402D012C142E4F910895EA0FFB1F3C
:10296400681F0895E095F0956095EF5FFF4F6F4FF6
:1029740008955F9381DF903871F150E8152604C003
:102984005F937ADF903839F1703821F1572F591B52
:102994002BF112F4D7DFFACF583118F0AA27BB274E
:1029A4008827583028F0AB2FB82F88275850F9CFF4
:1029B400552329F08695B795A7955A95D9F7502DA3
:1029C400512572F0CBDF38F46795F795E795739549
:1029D40013F420C0B7DF3EDF5F910895D8F7FBCF33
:1029E400EA1BFB0B680B51F010F40094BBDF662369
:1029F40092F3EE0FFF1F661F7A95CBF7EE27FF27A2
:102A0400662777275F910895EFEFFFEF6FE77FEF7A
:102A14005F910895EFEFFFEF6FE77FE75F91089510
:102A24005F932ADF703851F3903841F301240894FE
:102A3400791F23F41CF300203AF3ECCF0F921F9379
:102A44002F933F934F93112722279927689FA00123
:102A54008F9F302D410D591F6B9F300D411D591F04
:102A64008E9F27D0BF9F25D06A9F23D0BE9F1DD0A5
:102A7400AF9F1BD0AE9F110D291F391F491F591F2E
:102A8400E32FF42F652F522F4F913F912F911F91D8
:102A94000F9066232AF0550FEE1FFF1F661F02C01A
:102AA40073954BF2CDDE5F910895100D211D391FF2
:102AB40002C0200D311D491F591F08955F93DCDEAC
:102AC400703821F411200AF49FCFA4CF903809F470
:102AD40095CF01240894970B1BF4D4F30020F3CF73
:102AE400792F1F932F933F934F931124112722275C
:102AF40033274427552790E2AE17BF0786074107BF
:102B040030F0AE1BBF0B860B410B089401C08894B8
:102B1400551F221F331F111CAA1FBB1F881F441FD0
:102B24009A9551F7F901612D4F913F912F911F9182
:102B3400662332F0550FEE1FFF1F661F7A9543F28E
:102B44007FDE5F91089599239AF0772342F09717D7
:102B540048F029F4AE17BF07860720F031F09894A7
:102B640088940895989408940895189488940895DE
:102B74007723C2F7971798F3A9F7EA17FB076807B3
:102B840088F399F3ECCFEA0FFB1F681F791F0895B0
:102B9400EA1BFB0B680B790B0895AE1BBF0B860B6E
:102BA400970B0895F195E195F0400895F09560959F
:102BB4007095E195FF4F6F4F7F4F0895EE230E2ED2
:102BC400EA2F19F0EE0F0A94E9F70895EE230E2E7A
:102BD400FD01BC0131F0EE0FFF1F661F771F0A9441
:102BE400D1F70895EE230E2EFD01BC0131F0759549
:102BF4006795F795E7950A94D1F70895EE230E2E7D
:102C0400FD01BC0131F076956795F795E7950A9437
:102C1400D1F7089575956795F795E7950895F69515
:102C2400E795F695E795F695E7950895EE0FFF1F5E
:102C3400661F771F0895E62FF72F6627F7FD6FEFBE
:102C4400762F08956F2F660F660B762F08958B2FBE
:102C5400880F880B982F0895EA17E1E009F0EE2712
:102C64000895FA9FF02DEB9FF00DEA9FE02DF10DF2
:102C740008957A9F702D6B9F700DF89F700DE99FDA
:102C8400700D6A9F602D710DFB9F600D711DE89F93
:102C9400600D711D8827FA9FF02D610D781FEB9F41
:102CA400F00D611D781FEA9FE02DF10D681F781F5C
:102CB40008954BD0D6DF0EF475DF089554D0D9DFD4
:102CC4000EF474DF08950024112490E1AA0FBB1FB1
:102CD400001C111C0E1A1F0A18F40E0E1F1E01C030
:102CE400A1609A9599F7FD01D00108952ED0EBDFEC
:102CF4000EF458DF08953F934F935F9300241124FB
:102D04004427552730E2AA0FBB1F881F991F001CB8
:102D1400111C441F551F0E1A1F0A460B570B28F48B
:102D24000E0E1F1E461F571F01C0A1603A9559F78A
:102D3400FD01BC01D001CA015F914F913F910895FB
:102D440012D0D9DF0EF432DF0895E894F7FF02C001
:102D540029DF6894B7FF06C0A095B095119600F8D6
:102D6400039400FA0895E89477FF02C01FDF689483
:102D740097FF0BC00024A095B0958095909511966F
:102D8400801D901D00F8039400FA0895ED93FD93BF
:102D94006D937C930895E881F9816A817B8108951C
:102DA400A881B9818A819B810895E883F9836A8324
:102DB4007B8308957A936A93FA93EA9308959A9396
:102DC4008A93BA93AA930895689401C0E89401D0B1
:102DD4009EDD182E862F612D192E972F712D1B2EF7
:102DE400BF2FF12D1A2EAE2FE12D0895F999FECFA4
:102DF400FF93FFB7F894A1BDB2BDF89AE0B5FFBF49
:102E0400FF910895F99B02C0A895FCCF9FB7F89451
:102E1400A1BDB2BDF89A80B5E81719F0E0BDFA9AE1
:102E2400F99A9FBF08953097604070400895002438
:102E34000A160B06080609060895EA17FB07680731
:102E4400790708955A934A933A932A931A930A93C3
:102E540008955D814C813B812A81198108810895FF
:00000001FF
